{
  "contractName": "Attendance",
  "abi": [
    {
      "inputs": [],
      "payable": false,
      "stateMutability": "nonpayable",
      "type": "constructor"
    },
    {
      "anonymous": false,
      "inputs": [
        {
          "indexed": false,
          "internalType": "address",
          "name": "studentAddress",
          "type": "address"
        },
        {
          "indexed": false,
          "internalType": "bool",
          "name": "isPresent",
          "type": "bool"
        }
      ],
      "name": "AttendanceMarked",
      "type": "event"
    },
    {
      "constant": true,
      "inputs": [],
      "name": "owner",
      "outputs": [
        {
          "internalType": "address",
          "name": "",
          "type": "address"
        }
      ],
      "payable": false,
      "stateMutability": "view",
      "type": "function"
    },
    {
      "constant": true,
      "inputs": [
        {
          "internalType": "address",
          "name": "",
          "type": "address"
        }
      ],
      "name": "students",
      "outputs": [
        {
          "internalType": "string",
          "name": "name",
          "type": "string"
        },
        {
          "internalType": "bool",
          "name": "isPresent",
          "type": "bool"
        },
        {
          "internalType": "uint256",
          "name": "timestamp",
          "type": "uint256"
        }
      ],
      "payable": false,
      "stateMutability": "view",
      "type": "function"
    },
    {
      "constant": false,
      "inputs": [
        {
          "internalType": "address",
          "name": "studentAddress",
          "type": "address"
        },
        {
          "internalType": "string",
          "name": "name",
          "type": "string"
        },
        {
          "internalType": "bool",
          "name": "isPresent",
          "type": "bool"
        }
      ],
      "name": "markAttendance",
      "outputs": [],
      "payable": false,
      "stateMutability": "nonpayable",
      "type": "function"
    },
    {
      "constant": true,
      "inputs": [
        {
          "internalType": "address",
          "name": "studentAddress",
          "type": "address"
        }
      ],
      "name": "getAttendance",
      "outputs": [
        {
          "internalType": "string",
          "name": "name",
          "type": "string"
        },
        {
          "internalType": "bool",
          "name": "isPresent",
          "type": "bool"
        },
        {
          "internalType": "uint256",
          "name": "timestamp",
          "type": "uint256"
        }
      ],
      "payable": false,
      "stateMutability": "view",
      "type": "function"
    }
  ],
  "bytecode": "0x608060405234801561001057600080fd5b5033600160006101000a81548173ffffffffffffffffffffffffffffffffffffffff021916908373ffffffffffffffffffffffffffffffffffffffff16021790555061084a806100616000396000f3fe608060405234801561001057600080fd5b5060043610610069576000357c0100000000000000000000000000000000000000000000000000000000900480638da5cb5b1461006e57806399bceadb146100b8578063a6c807a914610187578063f3106e9014610256575b600080fd5b61007661033d565b604051808273ffffffffffffffffffffffffffffffffffffffff1673ffffffffffffffffffffffffffffffffffffffff16815260200191505060405180910390f35b6100fa600480360360208110156100ce57600080fd5b81019080803573ffffffffffffffffffffffffffffffffffffffff169060200190929190505050610363565b604051808060200184151515158152602001838152602001828103825285818151815260200191508051906020019080838360005b8381101561014a57808201518184015260208101905061012f565b50505050905090810190601f1680156101775780820380516001836020036101000a031916815260200191505b5094505050505060405180910390f35b6101c96004803603602081101561019d57600080fd5b81019080803573ffffffffffffffffffffffffffffffffffffffff1690602001909291905050506104a2565b604051808060200184151515158152602001838152602001828103825285818151815260200191508051906020019080838360005b838110156102195780820151818401526020810190506101fe565b50505050905090810190601f1680156102465780820380516001836020036101000a031916815260200191505b5094505050505060405180910390f35b61033b6004803603606081101561026c57600080fd5b81019080803573ffffffffffffffffffffffffffffffffffffffff169060200190929190803590602001906401000000008111156102a957600080fd5b8201836020820111156102bb57600080fd5b803590602001918460018302840111640100000000831117156102dd57600080fd5b91908080601f016020809104026020016040519081016040528093929190818152602001838380828437600081840152601f19601f820116905080830192505050505050509192919290803515159060200190929190505050610571565b005b600160009054906101000a900473ffffffffffffffffffffffffffffffffffffffff1681565b606060008061037061074d565b6000808673ffffffffffffffffffffffffffffffffffffffff1673ffffffffffffffffffffffffffffffffffffffff168152602001908152602001600020604051806060016040529081600082018054600181600116156101000203166002900480601f0160208091040260200160405190810160405280929190818152602001828054600181600116156101000203166002900480156104525780601f1061042757610100808354040283529160200191610452565b820191906000526020600020905b81548152906001019060200180831161043557829003601f168201915b505050505081526020016001820160009054906101000a900460ff161515151581526020016002820154815250509050806000015181602001518260400151829250935093509350509193909250565b6000602052806000526040600020600091509050806000018054600181600116156101000203166002900480601f01602080910402602001604051908101604052809291908181526020018280546001816001161561010002031660029004801561054e5780601f106105235761010080835404028352916020019161054e565b820191906000526020600020905b81548152906001019060200180831161053157829003601f168201915b5050505050908060010160009054906101000a900460ff16908060020154905083565b600160009054906101000a900473ffffffffffffffffffffffffffffffffffffffff1673ffffffffffffffffffffffffffffffffffffffff163373ffffffffffffffffffffffffffffffffffffffff1614610634576040517f08c379a000000000000000000000000000000000000000000000000000000000815260040180806020018281038252601c8152602001807f566f7573206e27c3aa74657320706173206175746f726973c3a920210000000081525060200191505060405180910390fd5b60405180606001604052808381526020018215158152602001428152506000808573ffffffffffffffffffffffffffffffffffffffff1673ffffffffffffffffffffffffffffffffffffffff16815260200190815260200160002060008201518160000190805190602001906106ab929190610770565b5060208201518160010160006101000a81548160ff021916908315150217905550604082015181600201559050507f5904180ff0d05346dba0438c14e001c4d7173c2ea74c458582a10da5ce5394678382604051808373ffffffffffffffffffffffffffffffffffffffff1673ffffffffffffffffffffffffffffffffffffffff168152602001821515151581526020019250505060405180910390a1505050565b604051806060016040528060608152602001600015158152602001600081525090565b828054600181600116156101000203166002900490600052602060002090601f016020900481019282601f106107b157805160ff19168380011785556107df565b828001600101855582156107df579182015b828111156107de5782518255916020019190600101906107c3565b5b5090506107ec91906107f0565b5090565b61081291905b8082111561080e5760008160009055506001016107f6565b5090565b9056fea265627a7a7231582061525da29fc5ada69fbcafa85c72e2ee53efa8cc6b4e2f1be5a6d2c2add57c7064736f6c63430005100032",
  "source": "// SPDX-License-Identifier: MIT\r\npragma solidity ^0.5.16;\r\n\r\ncontract Attendance {\r\n    // Structure pour enregistrer l'étudiant\r\n    struct Student {\r\n        string name;\r\n        bool isPresent;\r\n        uint256 timestamp;\r\n    }\r\n\r\n    mapping(address => Student) public students;\r\n    address public owner;\r\n\r\n    event AttendanceMarked(address studentAddress, bool isPresent);\r\n\r\n    modifier onlyOwner() {\r\n        require(msg.sender == owner, \"Vous n'êtes pas autorisé !\");\r\n        _;\r\n    }\r\n\r\n    constructor() public {\r\n        owner = msg.sender;\r\n    }\r\n\r\n    // Fonction pour marquer la présence d'un étudiant\r\n    function markAttendance(address studentAddress, string memory name, bool isPresent) public onlyOwner {\r\n        students[studentAddress] = Student(name, isPresent, block.timestamp);\r\n        emit AttendanceMarked(studentAddress, isPresent);\r\n    }\r\n\r\n    // Fonction pour obtenir le statut de présence d'un étudiant\r\n    function getAttendance(address studentAddress) public view returns (string memory name, bool isPresent, uint256 timestamp) {\r\n        Student memory student = students[studentAddress];\r\n        return (student.name, student.isPresent, student.timestamp);\r\n    }\r\n}\r\n",
  "sourcePath": "C:\\Users\\USER\\Desktop\\blockchain-flutter\\blockchain_flutter_project\\contracts\\Attendance.sol",
  "compiler": {
    "name": "solc",
    "version": "0.5.16+commit.9c3226ce.Emscripten.clang"
  },
  "schemaVersion": "3.4.16",
  "updatedAt": "2024-11-26T19:35:30.976Z",
  "networkType": "ethereum",
  "devdoc": {
    "methods": {}
  },
  "userdoc": {
    "methods": {}
  }
}